{
  "contractName": "Contract",
  "abi": [
    {
      "inputs": [],
      "stateMutability": "nonpayable",
      "type": "constructor"
    },
    {
      "inputs": [
        {
          "internalType": "uint256",
          "name": "",
          "type": "uint256"
        }
      ],
      "name": "Dr_ids",
      "outputs": [
        {
          "internalType": "address",
          "name": "",
          "type": "address"
        }
      ],
      "stateMutability": "view",
      "type": "function",
      "constant": true
    },
    {
      "inputs": [
        {
          "internalType": "uint256",
          "name": "",
          "type": "uint256"
        }
      ],
      "name": "Patient_ids",
      "outputs": [
        {
          "internalType": "address",
          "name": "",
          "type": "address"
        }
      ],
      "stateMutability": "view",
      "type": "function",
      "constant": true
    },
    {
      "inputs": [
        {
          "internalType": "uint256",
          "name": "",
          "type": "uint256"
        }
      ],
      "name": "RecordHashes",
      "outputs": [
        {
          "internalType": "string",
          "name": "",
          "type": "string"
        }
      ],
      "stateMutability": "view",
      "type": "function",
      "constant": true
    },
    {
      "inputs": [
        {
          "internalType": "uint256",
          "name": "",
          "type": "uint256"
        }
      ],
      "name": "mshop_ids",
      "outputs": [
        {
          "internalType": "address",
          "name": "",
          "type": "address"
        }
      ],
      "stateMutability": "view",
      "type": "function",
      "constant": true
    },
    {
      "inputs": [],
      "name": "getAdmin",
      "outputs": [
        {
          "internalType": "address",
          "name": "",
          "type": "address"
        }
      ],
      "stateMutability": "view",
      "type": "function",
      "constant": true
    },
    {
      "inputs": [],
      "name": "getMshops",
      "outputs": [
        {
          "internalType": "address",
          "name": "",
          "type": "address"
        }
      ],
      "stateMutability": "view",
      "type": "function",
      "constant": true
    },
    {
      "inputs": [],
      "name": "getDoctors",
      "outputs": [
        {
          "internalType": "address",
          "name": "",
          "type": "address"
        }
      ],
      "stateMutability": "view",
      "type": "function",
      "constant": true
    },
    {
      "inputs": [
        {
          "internalType": "address",
          "name": "_newdr",
          "type": "address"
        }
      ],
      "name": "addMshop",
      "outputs": [],
      "stateMutability": "nonpayable",
      "type": "function"
    },
    {
      "inputs": [
        {
          "internalType": "address",
          "name": "shopID",
          "type": "address"
        }
      ],
      "name": "delMshop",
      "outputs": [],
      "stateMutability": "nonpayable",
      "type": "function"
    },
    {
      "inputs": [
        {
          "internalType": "address",
          "name": "id",
          "type": "address"
        }
      ],
      "name": "isMshop",
      "outputs": [
        {
          "internalType": "string",
          "name": "",
          "type": "string"
        }
      ],
      "stateMutability": "view",
      "type": "function",
      "constant": true
    },
    {
      "inputs": [
        {
          "internalType": "address",
          "name": "_newdr",
          "type": "address"
        }
      ],
      "name": "addDoctor",
      "outputs": [],
      "stateMutability": "nonpayable",
      "type": "function"
    },
    {
      "inputs": [
        {
          "internalType": "address",
          "name": "docID",
          "type": "address"
        }
      ],
      "name": "delDoctor",
      "outputs": [],
      "stateMutability": "nonpayable",
      "type": "function"
    },
    {
      "inputs": [
        {
          "internalType": "address",
          "name": "id",
          "type": "address"
        }
      ],
      "name": "isDr",
      "outputs": [
        {
          "internalType": "string",
          "name": "",
          "type": "string"
        }
      ],
      "stateMutability": "view",
      "type": "function",
      "constant": true
    },
    {
      "inputs": [
        {
          "internalType": "address",
          "name": "id",
          "type": "address"
        }
      ],
      "name": "isPat",
      "outputs": [
        {
          "internalType": "string",
          "name": "",
          "type": "string"
        }
      ],
      "stateMutability": "view",
      "type": "function",
      "constant": true
    },
    {
      "inputs": [
        {
          "internalType": "address",
          "name": "_newpatient",
          "type": "address"
        }
      ],
      "name": "addPatient",
      "outputs": [],
      "stateMutability": "nonpayable",
      "type": "function"
    },
    {
      "inputs": [
        {
          "internalType": "address",
          "name": "iD",
          "type": "address"
        }
      ],
      "name": "getPatInfo",
      "outputs": [
        {
          "internalType": "string",
          "name": "",
          "type": "string"
        }
      ],
      "stateMutability": "view",
      "type": "function",
      "constant": true
    },
    {
      "inputs": [
        {
          "internalType": "address",
          "name": "pat_id",
          "type": "address"
        },
        {
          "internalType": "string",
          "name": "_patInfoHash",
          "type": "string"
        }
      ],
      "name": "addPatInfo",
      "outputs": [],
      "stateMutability": "nonpayable",
      "type": "function"
    },
    {
      "inputs": [
        {
          "internalType": "string",
          "name": "_recHash",
          "type": "string"
        },
        {
          "internalType": "address",
          "name": "_pat_id",
          "type": "address"
        }
      ],
      "name": "addMedRecord",
      "outputs": [],
      "stateMutability": "nonpayable",
      "type": "function"
    },
    {
      "inputs": [
        {
          "internalType": "address",
          "name": "id",
          "type": "address"
        }
      ],
      "name": "viewMedRec",
      "outputs": [
        {
          "internalType": "string",
          "name": "",
          "type": "string"
        }
      ],
      "stateMutability": "view",
      "type": "function",
      "constant": true
    }
  ],
  "bytecode": "0x608060405234801561001057600080fd5b50600d8054336001600160a01b0319909116811790915561003e90600090610043602090811b6107ba17901c565b610147565b61004d82826100c4565b1561009f5760405162461bcd60e51b815260206004820152601f60248201527f526f6c65733a206163636f756e7420616c72656164792068617320726f6c650060448201526064015b60405180910390fd5b6001600160a01b0316600090815260209190915260409020805460ff19166001179055565b60006001600160a01b0382166101275760405162461bcd60e51b815260206004820152602260248201527f526f6c65733a206163636f756e7420697320746865207a65726f206164647265604482015261737360f01b6064820152608401610096565b506001600160a01b03166000908152602091909152604090205460ff1690565b610c58806101566000396000f3fe608060405234801561001057600080fd5b50600436106101215760003560e01c8063720d5b4b116100ad578063c979783f11610071578063c979783f1461023b578063cc5729141461024e578063ce99814614610261578063e4ed5cdd14610274578063f1a1d7d51461028757600080fd5b8063720d5b4b146101fb5780637a03f30e1461020e5780638db62d6214610215578063b13d5d941461020e578063be9568731461022857600080fd5b80634780468f116100f45780634780468f1461019e57806358dae14f146101b15780635ae3e018146101c45780636d263ceb146101d75780636e9960c3146101ea57600080fd5b806311f67285146101265780632ebac08d1461013b5780632f4a4dcb1461016b5780633c52554b1461017e575b600080fd5b610139610134366004610a93565b61029a565b005b61014e610149366004610ae1565b610323565b6040516001600160a01b0390911681526020015b60405180910390f35b61014e610179366004610ae1565b61034d565b61019161018c366004610afa565b61035d565b6040516101629190610b1c565b6101396101ac366004610afa565b610409565b6101916101bf366004610ae1565b610447565b6101396101d2366004610afa565b6104f3565b6101396101e5366004610afa565b610525565b600d546001600160a01b031661014e565b610191610209366004610afa565b610585565b600061014e565b610191610223366004610afa565b6105ee565b610191610236366004610afa565b61063f565b61014e610249366004610ae1565b61064c565b61019161025c366004610afa565b61065c565b61013961026f366004610afa565b610683565b610139610282366004610afa565b6106b5565b610139610295366004610b71565b6106e7565b6001600160a01b0382166000908152600560209081526040909120825190916102c791839185019061093b565b50600980546001810182556000919091527f6e1540171b6c0c960b71a7020d9f60077f6af931a8bbf590da0223dacf75c7af0180546001600160a01b0319166001600160a01b03851617905561031e6002846107ba565b505050565b600b818154811061033357600080fd5b6000918252602090912001546001600160a01b0316905081565b6009818154811061033357600080fd5b6001600160a01b038116600090815260066020526040902080546060919061038490610bbf565b80601f01602080910402602001604051908101604052809291908181526020018280546103b090610bbf565b80156103fd5780601f106103d2576101008083540402835291602001916103fd565b820191906000526020600020905b8154815290600101906020018083116103e057829003601f168201915b50505050509050919050565b610414600033610836565b6104395760405162461bcd60e51b815260040161043090610bfa565b60405180910390fd5b6104446001826107ba565b50565b600a818154811061045757600080fd5b90600052602060002001600091509050805461047290610bbf565b80601f016020809104026020016040519081016040528092919081815260200182805461049e90610bbf565b80156104eb5780601f106104c0576101008083540402835291602001916104eb565b820191906000526020600020905b8154815290600101906020018083116104ce57829003601f168201915b505050505081565b6104fe600033610836565b61051a5760405162461bcd60e51b815260040161043090610bfa565b6104446001826108b9565b610530600033610836565b151560011461057a5760405162461bcd60e51b815260206004820152601660248201527513db9b1e4810591b5a5b8810d85b88111bc8151a185d60521b6044820152606401610430565b6104446002826107ba565b6060610592600283610836565b6105d15760405162461bcd60e51b815260206004820152601060248201526f4f6e6c7920666f7220446f63746f727360801b6044820152606401610430565b50506040805180820190915260018152603160f81b602082015290565b60606105fb600383610836565b6105d15760405162461bcd60e51b815260206004820152601560248201527404f6e6c7920666f72204d65646963616c2053686f7605c1b6044820152606401610430565b6060610592600183610836565b6008818154811061033357600080fd5b6001600160a01b038116600090815260056020526040902080546060919061038490610bbf565b61068e600033610836565b6106aa5760405162461bcd60e51b815260040161043090610bfa565b6104446003826107ba565b6106c0600033610836565b6106dc5760405162461bcd60e51b815260040161043090610bfa565b6104446003826108b9565b6106f2600133610836565b15156001146107435760405162461bcd60e51b815260206004820152601760248201527f4f6e6c7920446f63746f722043616e20446f20546861740000000000000000006044820152606401610430565b6001600160a01b03811660009081526006602090815260409091208351909161077091839186019061093b565b50600a805460018101825560009190915283516107b4917fc65a7bb8d6351c1cf70c95a316cc6a92839c986682d98bc35f958f4883f9d2a80190602086019061093b565b50505050565b6107c48282610836565b156108115760405162461bcd60e51b815260206004820152601f60248201527f526f6c65733a206163636f756e7420616c72656164792068617320726f6c65006044820152606401610430565b6001600160a01b0316600090815260209190915260409020805460ff19166001179055565b60006001600160a01b0382166108995760405162461bcd60e51b815260206004820152602260248201527f526f6c65733a206163636f756e7420697320746865207a65726f206164647265604482015261737360f01b6064820152608401610430565b506001600160a01b03166000908152602091909152604090205460ff1690565b6108c38282610836565b6109195760405162461bcd60e51b815260206004820152602160248201527f526f6c65733a206163636f756e7420646f6573206e6f74206861766520726f6c6044820152606560f81b6064820152608401610430565b6001600160a01b0316600090815260209190915260409020805460ff19169055565b82805461094790610bbf565b90600052602060002090601f01602090048101928261096957600085556109af565b82601f1061098257805160ff19168380011785556109af565b828001600101855582156109af579182015b828111156109af578251825591602001919060010190610994565b506109bb9291506109bf565b5090565b5b808211156109bb57600081556001016109c0565b80356001600160a01b03811681146109eb57600080fd5b919050565b634e487b7160e01b600052604160045260246000fd5b600082601f830112610a1757600080fd5b813567ffffffffffffffff80821115610a3257610a326109f0565b604051601f8301601f19908116603f01168101908282118183101715610a5a57610a5a6109f0565b81604052838152866020858801011115610a7357600080fd5b836020870160208301376000602085830101528094505050505092915050565b60008060408385031215610aa657600080fd5b610aaf836109d4565b9150602083013567ffffffffffffffff811115610acb57600080fd5b610ad785828601610a06565b9150509250929050565b600060208284031215610af357600080fd5b5035919050565b600060208284031215610b0c57600080fd5b610b15826109d4565b9392505050565b600060208083528351808285015260005b81811015610b4957858101830151858201604001528201610b2d565b81811115610b5b576000604083870101525b50601f01601f1916929092016040019392505050565b60008060408385031215610b8457600080fd5b823567ffffffffffffffff811115610b9b57600080fd5b610ba785828601610a06565b925050610bb6602084016109d4565b90509250929050565b600181811c90821680610bd357607f821691505b60208210811415610bf457634e487b7160e01b600052602260045260246000fd5b50919050565b6020808252600e908201526d27b7363c902337b91020b236b4b760911b60408201526060019056fea2646970667358221220dac954e6358f228e0d6c6f2e7d58b46cca839523c5f6e8b9c3a623c25be96af164736f6c634300080b0033",
  "immutableReferences": {},
  "source": "// SPDX-License-Identifier: MIT\npragma solidity >=0.4.21;\n\nimport \"./Roles.sol\";\n\ncontract Contract {\n    using Roles for Roles.Role;\n\n    Roles.Role private admin;\n    Roles.Role private doctor;\n    Roles.Role private patient;\n    Roles.Role private mshop;\n    struct Mshop {\n        string mshopHash;\n    }\n    struct Doctor {\n        string drHash;\n    }\n\n    struct Patient {\n        string patHash;\n    }\n\n    struct MedRec {\n        string RecordHash;\n    }\n\n    mapping(address => Doctor) Doctors;\n    mapping(address => Patient) Patients;\n    mapping(address => MedRec) Records;\n    mapping(address => Mshop) Mshops;\n\n    address[] public Dr_ids;\n    address[] public Patient_ids;\n    string[] public RecordHashes;\n    address[] public mshop_ids;\n\n    address accountId;\n    address admin_id;\n    address get_patient_id;\n    address get_dr_id;\n    address get_mshop_id;\n\n    constructor() {\n        admin_id = msg.sender;\n        admin.add(admin_id);\n    }\n\n    //get Admin\n\n    function getAdmin() public view returns (address) {\n        return admin_id;\n    }\n\n    function getMshops() public view returns (address) {}\n\n    function getDoctors() public view returns (address) {}\n\n    function addMshop(address _newdr) public {\n        require(admin.has(msg.sender), \"Only For Admin\");\n        mshop.add(_newdr);\n    }\n\n    function delMshop(address shopID) public {\n        require(admin.has(msg.sender), \"Only For Admin\");\n        mshop.remove(shopID);\n    }\n\n    // check is Mshop\n\n    function isMshop(address id) public view returns (string memory) {\n        require(mshop.has(id), \"Only for Medical Shop\");\n        return \"1\";\n    }\n\n    //Add Doctor\n\n    function addDoctor(address _newdr) public {\n        require(admin.has(msg.sender), \"Only For Admin\");\n        doctor.add(_newdr);\n    }\n\n    function delDoctor(address docID) public {\n        require(admin.has(msg.sender), \"Only For Admin\");\n        doctor.remove(docID);\n    }\n\n    // check is Doctor\n\n    function isDr(address id) public view returns (string memory) {\n        require(doctor.has(id), \"Only for Doctors\");\n        return \"1\";\n    }\n\n    // Check is Patient\n\n    function isPat(address id) public view returns (string memory) {\n        require(patient.has(id), \"Only for Doctors\");\n        return \"1\";\n    }\n\n    //  Add patient\n\n    function addPatient(address _newpatient) external onlyAdmin {\n        patient.add(_newpatient);\n    }\n\n    // Get Patient Information => retrun pateint IPFS hash\n\n    function getPatInfo(address iD) public view returns (string memory) {\n        return (Patients[iD].patHash);\n    }\n\n    // Add patient Information to BlockChain\n\n    function addPatInfo(address pat_id, string memory _patInfoHash) public {\n        Patient storage patInfo = Patients[pat_id];\n        patInfo.patHash = _patInfoHash;\n        Patient_ids.push(pat_id);\n\n        patient.add(pat_id);\n    }\n\n    // Add Medical record to block chain\n\n    function addMedRecord(string memory _recHash, address _pat_id) public {\n        require(doctor.has(msg.sender) == true, \"Only Doctor Can Do That\");\n\n        MedRec storage record = Records[_pat_id];\n        record.RecordHash = _recHash;\n        RecordHashes.push(_recHash);\n    }\n\n    // View Medical record return IPFS hash of record\n\n    function viewMedRec(address id) public view returns (string memory) {\n        return (Records[id].RecordHash);\n    }\n\n    /*\n        Modifiers\n    */\n\n    modifier onlyAdmin() {\n        require(admin.has(msg.sender) == true, \"Only Admin Can Do That\");\n        _;\n    }\n    modifier onlyDoctor() {\n        require(doctor.has(msg.sender) == true, \"Only Doctor Can Do That\");\n        _;\n    }\n    modifier onlyPatient() {\n        require(patient.has(msg.sender) == true, \"Only Admin Can Do That\");\n        _;\n    }\n    modifier onlyMshop() {\n        require(mshop.has(msg.sender) == true, \"Only Admin Can Do That\");\n        _;\n    }\n}\n",
  "sourcePath": "C:\\Users\\shahi\\Desktop\\medSafe\\Client\\contracts\\Contract.sol",
  "compiler": {
    "name": "solc",
    "version": "0.8.11+commit.d7f03943.Emscripten.clang"
  },
  "schemaVersion": "3.4.7",
  "updatedAt": "2022-05-21T07:15:24.146Z",
  "networkType": "ethereum",
  "devdoc": {
    "kind": "dev",
    "methods": {},
    "version": 1
  },
  "userdoc": {
    "kind": "user",
    "methods": {},
    "version": 1
  }
}